S01200002E2E2F756E7469746C65642E733139EE
S32D0000C00000000020F5E1000051E5000051E5000051E5000051E5000051E500000000000000000000000000000E
S32D0000C0280000000051E5000051E500000000000051E5000051E5000051E5000051E5000051E5000051E500003A
S32D0000C05051E5000051E5000051E5000051E5000051E5000051E5000051E5000051E5000051E5000051E50000A6
S32D0000C07851E5000051E5000051E5000051E5000051E5000051E5000051E5000051E5000051E5000051E500007E
S32D0000C0A051E5000051E5000051E5000051E5000051E5000051E5000051E5000051E5000051E5000051E5000056
S32D0000C0C851E5000051E5000051E5000051E5000051E5000051E5000051E5000051E5000051E5000051E500002E
S32D0000C0F051E500006169010051E5000051E5000051E5000051E5000051E5000051E5000051E5000051E5000071
S32D0000C11851E5000051E5000051E5000051E5000051E5000051E5000051E5000051E5000051E5000051E50000DD
S32D0000C14051E5000051E5000051E5000051E500002540010051E5000051E5000051E5000051E5000051E5000085
S32D0000C16851E5000051E5000051E5000051E5000051E5000051E5000051E5000051E5000051E5000051E500008D
S32D0000C19051E5000051E5000051E50000D53A010029390100FD390100A1E50000AD3B010051E5000051E500005A
S32D0000C1B851E5000051E5000051E5000051E5000051E5000051E5000051E5000051E5000051E5000051E500003D
S32D0000C41081F0004102E000BF83F0004330B54FEA41044FEA430594EA050F08BF90EA020F1FBF54EA000C55EAC6
S32D0000C438020C7FEA645C7FEA655C00F0E2804FEA5454D4EB5555B8BF6D420CDD2C4480EA020281EA030382EA0F
S32D0000C460000083EA010180EA020281EA0303362D88BF30BD11F0004F4FEA01314FF4801C4CEA113102D0404263
S32D0000C48861EB410113F0004F4FEA03334CEA133302D0524263EB430394EA050F00F0A780A4F10104D5F1200E8A
S32D0000C4B00DDB02FA0EFC22FA05F2801841F1000103FA0EF2801843FA05F359410EE0A5F120050EF1200E012A2D
S32D0000C4D803FA0EFC28BF4CF0020C43FA05F3C01851EBE37101F0004507D54FF0000EDCF1000C7EEB00006EEB67
S32D0000C5000101B1F5801F1BD3B1F5001F0CD349085FEA30004FEA3C0C04F101044FEA445212F5800F80F09A8000
S32D0000C528BCF1004F08BF5FEA500C50F1000041EB045141EA050130BD5FEA4C0C404141EB010111F4801FA4F114
S32D0000C5500104E9D191F0000F04BF01460020B1FA81F308BF2033A3F10B03B3F120020CDA0C3208DD02F1140C87
S32D0000C578C2F10C0201FA0CF021FA02F10CE002F11402D8BFC2F1200C01FA02F120FA0CFCDCBF41EA0C019040B1
S32D0000C5A0E41AA2BF01EB0451294330BD6FEA04041F3C1CDA0C340EDC04F11404C4F1200220FA04F001FA02F3B6
S32D0000C5C840EA030021FA04F345EA030130BDC4F10C04C4F1200220FA02F001FA04F340EA0300294630BD21FAA8
S32D0000C5F004F0294630BD94F0000F83F4801306BF81F480110134013D4EE77FEA645C18BF7FEA655C29D094EA1C
S32D0000C618050F08BF90EA020F05D054EA000C04BF1946104630BD91EA030F1EBF0021002030BD5FEA545C05D1A3
S32D0000C6404000494128BF41F0004130BD14F580043CBF01F5801130BD01F0004545F0FE4141F470014FF0000031
S32D0000C66830BD7FEA645C1ABF194610467FEA655C1CBF0B46024650EA013406BF52EA033591EA030F41F40021D7
S32D0000C69030BD00BF90F0000F04BF0021704730B54FF4806404F132044FF000054FF0000150E700BF90F0000F66
S32D0000C6B804BF0021704730B54FF4806404F1320410F0004548BF40424FF000013EE700BF42004FEAE2014FEAF9
S32D0000C6E031014FEA02701FBF12F07F4393F07F4F81F06051704792F0000F14BF93F07F4F704730B54FF460741B
S32D0000C70801F0004521F0004120E700BF50EA010208BF704730B54FF000050AE050EA010208BF704730B511F046
S32D0000C730004502D5404261EB41014FF4806404F132045FEA915C3FF4DCAE4FF003025FEADC0C18BF03325FEAA0
S32D0000C758DC0C18BF033202EBDC02C2F1200300FA03FC20FA02F001FA03FE40EA0E0021FA02F11444C1E600BF19
S32D0000C78070B54FF0FF0C4CF4E06C1CEA11541DBF1CEA135594EA0C0F95EA0C0F00F0DEF82C4481EA030621EAF3
S32D0000C7A84C5123EA4C5350EA013518BF52EA033541F4801143F4801338D0A0FB02CE4FF00005E1FB02E506F05F
S32D0000C7D00042E0FB03E54FF00006E1FB03569CF0000F18BF4EF0010EA4F1FF04B6F5007F64F5407404D25FEA0F
S32D0000C7F84E0E6D4146EB060642EAC62141EA55514FEAC52040EA5E504FEACE2EB4F1FD0C88BFBCF5E06F1ED8D2
S32D0000C820BEF1004F08BF5FEA500E50F1000041EB045170BD06F0004646EA010140EA020081EA0301B4EB5C0487
S32D0000C848C2BFD4EB0C0541EA045170BD41F480114FF0000E013C00F3AB8014F1360FDEBF002001F0004170BDF0
S32D0000C870C4F10004203C35DA0C341BDC04F11404C4F1200500FA05F320FA04F001FA05F240EA020001F0004207
S32D0000C89821F0004110EBD37021FA04F642EB06015EEA430E08BF20EAD37070BDC4F10C04C4F1200500FA04F32F
S32D0000C8C020FA05F001FA04F240EA020001F0004110EBD37041F100015EEA430E08BF20EAD37070BDC4F12005C7
S32D0000C8E800FA05F24EEA020E20FA04F301FA05F243EA020321FA04F001F0004121FA04F220EA020000EBD37028
S32D0000C9105EEA430E08BF20EAD37070BD94F0000F0FD101F00046400041EB010111F4801F08BF013CF7D041EA6D
S32D0000C938060195F0000F18BF704703F00046520043EB030313F4801F08BF013DF7D043EA0603704794EA0C0FF1
S32D0000C9600CEA135518BF95EA0C0F0CD050EA410618BF52EA4306D1D181EA030101F000414FF0000070BD50EA38
S32D0000C988410606BF1046194652EA430619D094EA0C0F02D150EA013613D195EA0C0F05D152EA03361CBF10467B
S32D0000C9B019460AD181EA030101F0004141F0FE4141F470014FF0000070BD41F0FE4141F4780170BD70B54FF04D
S32D0000C9D8FF0C4CF4E06C1CEA11541DBF1CEA135594EA0C0F95EA0C0F00F0A7F8A4EB050481EA030E52EA03359B
S32D0000CA004FEA013100F088804FEA03334FF0805545EA131343EA12634FEA022245EA111545EA10654FEA002676
S32D0000CA280EF000419D4208BF964244F1FD0404F5407402D25B084FEA3202B61A65EB03055B084FEA32024FF461
S32D0000CA5080104FF4002CB6EB020E75EB030E22BFB61A754640EA0C005B084FEA3202B6EB020E75EB030E22BF22
S32D0000CA78B61A754640EA5C005B084FEA3202B6EB020E75EB030E22BFB61A754640EA9C005B084FEA3202B6EBEA
S32D0000CAA0020E75EB030E22BFB61A754640EADC0055EA060E18D04FEA051545EA16754FEA06164FEAC30343EAAC
S32D0000CAC852734FEAC2025FEA1C1CC0D111F4801F0BD141EA00014FF000004FF0004CB6E711F4801F04BF0143AE
S32D0000CAF00020B4F1FD0C88BFBCF5E06F3FF6AFAEB5EB030C04BFB6EB020C5FEA500C50F1000041EB045170BDBC
S32D0000CB180EF0004E4EEA113114EB5C04C2BFD4EB0C0541EA045170BD41F480114FF0000E013C90E645EA060EC3
S32D0000CB408DE60CEA135594EA0C0F08BF95EA0C0F3FF43BAF94EA0C0F0AD150EA01347FF434AF95EA0C0F7FF499
S32D0000CB6825AF104619462CE795EA0C0F06D152EA03353FF4FDAE1046194622E750EA410618BF52EA43067FF432
S32D0000CB90C5AE50EA41047FF40DAF52EA43057FF4EBAE12E74FF0FF3C06E000BF4FF0010C02E000BF4FF0010C75
S32D0000CBB84DF804CD4FEA410C7FEA6C5C4FEA430C18BF7FEA6C5C1BD001B050EA410C0CBF52EA430C91EA030FEC
S32D0000CBE002BF90EA020F0020704710F1000F91EA030F58BF994208BF90422CBFD8176FEAE37040F0010070476E
S32D0000CC084FEA410C7FEA6C5C02D150EA013C07D14FEA430C7FEA6C5CD6D152EA033CD3D05DF8040B704700BFCD
S32D0000CC308446104662468C461946634600E000BF01B5FFF7B7FF002848BF10F1000F01BD4DF808EDFFF7F4FF13
S32D0000CC580CBF012000205DF808FB00BF4DF808EDFFF7EAFF34BF012000205DF808FB00BF4DF808EDFFF7E0FF18
S32D0000CC8094BF012000205DF808FB00BF4DF808EDFFF7CEFF94BF012000205DF808FB00BF4DF808EDFFF7C4FF40
S32D0000CCA834BF012000205DF808FB00BF4FEA410212F5001215D211D56FF47873B3EB625212D94FEAC12343F0D6
S32D0000CCD0004343EA505311F0004F23FA02F018BF404270474FF00000704750EA013005D111F0004008BF6FF016
S32D0000CCF8004070474FF00000704700BF4A0011D212F5001211D20DD56FF47873B3EB62520ED44FEAC12343F085
S32D0000CD20004343EA505323FA02F070474FF00000704750EA013002D14FF0FF3070474FF0000070474FEA410241
S32D0000CD48B2F1E04324BFB3F5001CDCF1FE5C0DD901F0004C4FEAC0024CEA5070B2F1004F40EB830008BF20F09E
S32D0000CD700100704711F0804F21D113F13872BCBF01F00040704741F480114FEA5252C2F11802C2F1200C10FAB1
S32D0000CD980CF320FA02F018BF40F001004FEAC1234FEAD32303FA0CFC40EA0C0023FA02F34FEA4303CCE77FEA26
S32D0000CDC0625307D150EA01331EBF4FF0FE4040F44000704701F0004040F0FE4040F40000704700BF80F00040CC
S32D0000CDE802E000BF81F0004142001FBF5FEA410392EA030F7FEA226C7FEA236C6AD04FEA1262D2EB1363C1BF06
S32D0000CE10D218414048404140B8BF5B42192B88BF704710F0004F40F4000020F07F4018BF404211F0004F41F4FA
S32D0000CE38000121F07F4118BF494292EA030F3FD0A2F1010241FA03FC10EB0C00C3F1200301FA03F100F000432B
S32D0000CE6002D5494260EB4000B0F5000F13D3B0F1807F06D340084FEA310102F10102FE2A51D2B1F1004F40EB94
S32D0000CE88C25008BF20F0010040EA03007047490040EB000010F4000FA2F10102EDD1B0FA80FCACF1080CB2EB5F
S32D0000CEB00C0200FA0CF0AABF00EBC25052421843BCBFD0401843704792F0000F81F4000106BF80F400000132EB
S32D0000CED8013BB5E74FEA41037FEA226C18BF7FEA236C21D092EA030F04D092F0000F08BF0846704790EA010FD7
S32D0000CF001CBF0020704712F07F4F04D1400028BF40F00040704712F100723CBF00F50000704700F0004343F0DC
S32D0000CF28FE4040F4000070477FEA226216BF08467FEA23630146420206BF5FEA412390EA010F40F480007047C1
S32D0000CF504FF0000304E000BF10F0004348BF40425FEA000C08BF704743F0964301464FF000001CE050EA010264
S32D0000CF7808BF70474FF000030AE000BF50EA010208BF704711F0004302D5404261EB41015FEA010C02BF84465B
S32D0000CFA00146002043F0B64308BFA3F18053A3F50003BCFA8CF2083AA3EBC25310DB01FA02FC634400FA02FC6B
S32D0000CFC8C2F12002BCF1004F20FA02F243EB020008BF20F00100704702F1200201FA02FCC2F1200250EA4C0034
S32D0000CFF021FA02F243EB020008BF20EADC7070474FF0FF0C1CEAD0521EBF1CEAD15392EA0C0F93EA0C0F6FD019
S32D0000D0181A4480EA010C400218BF5FEA41211ED04FF0006343EA501043EA5111A0FB01310CF00040B1F5000FE7
S32D0000D0403EBF490041EAD3715B0040EA010062F17F02FD2A1DD8B3F1004F40EBC25008BF20F00100704790F058
S32D0000D068000F0CF0004C08BF49024CEA502040EA51207F3AC2BFD2F1FF0340EAC250704740F400004FF0000388
S32D0000D090013A5DDC12F1190FDCBF00F000407047C2F10002410021FA02F1C2F1200200FA02FC5FEA310040F1D5
S32D0000D0B8000053EA4C0308BF20EADC70704792F0000F00F0004C02BF400010F4000F013AF9D040EA0C0093F04C
S32D0000D0E0000F01F0004C02BF490011F4000F013BF9D041EA0C018FE70CEAD15392EA0C0F18BF93EA0C0F0AD00B
S32D0000D10830F0004C18BF31F0004CD8D180EA010000F00040704790F0000F17BF90F0004F084691F0000F91F0BB
S32D0000D130004F14D092EA0C0F01D142020FD193EA0C0F03D14B0218BF084608D180EA010000F0004040F0FE4051
S32D0000D15840F40000704740F0FE4040F4400070474FF0FF0C1CEAD0521EBF1CEAD15392EA0C0F93EA0C0F69D044
S32D0000D180A2EB030280EA010C49024FEA402037D04FF0805343EA111143EA10130CF000408B4238BF5B0042F14E
S32D0000D1A87D024FF4000C8B4224BF5B1A40EA0C00B3EB510F24BFA3EB510340EA5C00B3EB910F24BFA3EB9103A4
S32D0000D1D040EA9C00B3EBD10F24BFA3EBD10340EADC001B0118BF5FEA1C1CE0D1FD2A3FF650AF8B4240EBC25018
S32D0000D1F808BF20F0010070470CF0004C4CEA50207F32C2BFD2F1FF0340EAC250704740F400004FF00003013AF1
S32D0000D22037E792F0000F00F0004C02BF400010F4000F013AF9D040EA0C0093F0000F01F0004C02BF490011F4C9
S32D0000D248000F013BF9D041EA0C0195E70CEAD15392EA0C0F08D142027FF47DAF93EA0C0F7FF470AF084676E7AE
S32D0000D27093EA0C0F04D14B023FF44CAF08466EE730F0004C18BF31F0004CCAD130F000427FF45CAF31F0004376
S32D0000D2987FF43CAF5FE700BF4FF0FF3C06E000BF4FF0010C02E000BF4FF0010C4DF804CD4FEA40024FEA41039F
S32D0000D2C07FEA226C18BF7FEA236C11D001B052EA530C18BF90EA010F58BFB2EB030088BFC81738BF6FEAE1706E
S32D0000D2E818BF40F0010070477FEA226C02D15FEA402C05D17FEA236CE4D15FEA412CE1D05DF8040B704700BF16
S32D0000D310844608466146FFE70FB5FFF7C9FF002848BF10F1000F0FBD4DF808EDFFF7F4FF0CBF012000205DF839
S32D0000D33808FB00BF4DF808EDFFF7EAFF34BF012000205DF808FB00BF4DF808EDFFF7E0FF94BF012000205DF8A9
S32D0000D36008FB00BF4DF808EDFFF7D2FF94BF012000205DF808FB00BF4DF808EDFFF7C8FF34BF012000205DF8B1
S32D0000D38808FB00BF4FEA4002B2F1FE4F0FD34FF09E03B3EB12620DD94FEA002343F0004310F0004F23FA02F060
S32D0000D3B018BF404270474FF00000704712F1610F01D1420205D110F0004008BF6FF0004070474FF00000704797
S32D0000D3D880B483B000AF78607B6823F00043184607F10C07BD4680BC704700BF80B582B000AF7860786809F01B
S32D0000D40065FF0346184607F10807BD4680BD00BF80B582B000AF786039607868396809F07BFE0346184607F1D4
S32D0000D4280807BD4680BD00BF80B582B000AF00F035F800F011F94FF000037B600CE07868FFF786FD0346184692
S32D0000D4501249134A00F048FC7B6803F10A037B607A6840F267139A42CCBF00230123DBB2002BE8D149F2F050DB
S32D0000D478C0F2010000F0A6F941F2E440C1F6FF7009F064FD4FF00003184607F10807BD4680BD00BF0000004087
S32D0000D4A00000803F80B500AF41F2E440C1F6FF7009F07EFC00F020F841F21C13C1F6FF730C4A1A6041F21C1306
S32D0000D4C8C1F6FF73094A5A6041F21C13C1F6FF73064A9A6041F21C13C1F6FF73034ADA6000F066FB00F05EF882
S32D0000D4F080BD00BF0000000080B584B000AF49F20060C0F2010000F061F94FF000004FF07E5101F5E00106F048
S32D0000D518A3F9234BFB604FF014037B604FF00003BB6014E041F25010C1F6FF7006F0B4FB0346F8681946FFF7A2
S32D0000D54057FC0346FB604FF00A0006F06FF9BB6803F10103BB60BA687B689A42ACBF00230123DBB2002BE1D1EC
S32D0000D5687868FFF7F5FC0346F8681946FFF7F8FD03461A4641F22C13C1F6FF731A6041F22C13C1F6FF731B68FF
S32D0000D59049F21460C0F20100194600F04DF907F11007BD4680BD00BF0000000080B582B000AF41F25C40C1F6CC
S32D0000D5B8FF7049F22461C0F201014FF006024FF0020307F01DFE03E04FF0010006F02AF907F104023B4641F2D7
S32D0000D5E05C40C1F6FF7011461A4607F0D9FC0346002BEDD103E04FF0010006F017F907F104023B4641F25C402F
S32D0000D608C1F6FF7011461A4607F0C6FC034683F00103DBB2002BEAD103E04FF0010006F001F907F104023B4699
S32D0000D63041F25C40C1F6FF7011461A4607F0B0FC0346002BEDD141F25C40C1F6FF704FF43B0107F0BDFB07F130
S32D0000D6580807BD4680BD00BFF0B587B000AF574B7B61564B3B61554BFB6041F22C13C1F6FF731B68184652493E
S32D0000D680FFF7B4FB0346BB6006F016F902460B46104619464FF000024FF0804303F5A013FEF7BCFE02460B46EA
S32D0000D6A810461946FFF702FB03467B6039E03B69FB607B693B6141F25010C1F6FF7006F0EBFA03467B6106F041
S32D0000D6D0F3F804460D467868FEF7ECFF02460B464FF001010E4620462946FFF7D9FA0346002B02D14FF000038F
S32D0000D6F81E46F3B2002B10D049F23860C0F2010000F060F841F25C40C1F6FF704FF0000107F05AFB4FF000035F
S32D0000D7204AE04FF0050006F081F84FF001031C467869B968FFF720FE0346002B02D14FF000031C46E3B2002B98
S32D0000D7481FD14FF001031C463869B968FFF710FE0346002B02D14FF000031C46E3B2002B0FD14FF001031C4628
S32D0000D770F868B968FFF700FE0346002B02D14FF000031C46E3B2002B02D04FF0010301E04FF00003002B8ED1A9
S32D0000D79849F24C60C0F2010000F014F841F25C40C1F6FF704FF0000107F00EFB4FF00103184607F11C07BD46D9
S32D0000D7C0F0BD00BF000000000000803F80B582B000AF786006F070F802460B4641F2E440C1F6FF7049F25C61B6
S32D0000D7E8C0F2010109F0CEFB41F2E440C1F6FF70796809F0C7FB41F25C40C1F6FF70796807F01EFD41F2E44045
S32D0000D810C1F6FF7049F26461C0F2010109F0B6FB41F25C40C1F6FF704FF00A0107F0C2FD07F10807BD4680BD2A
S32D0000D83880B582B000AF7860396006F039F802460B4641F2E440C1F6FF7049F25C61C0F2010109F097FB41F294
S32D0000D860E440C1F6FF70796809F090FB41F25C40C1F6FF70796807F0E7FC3868FEF72CFF02460B4641F2E4408B
S32D0000D888C1F6FF7049F25C61C0F2010109F07AFB41F25C40C1F6FF70396807F019FD41F2E440C1F6FF7049F2D7
S32D0000D8B06461C0F2010109F069FB41F25C40C1F6FF704FF00A0107F075FD07F10807BD4680BD00BF80B584B05D
S32D0000D8D800AFF860B9607A6005F0EAFF02460B4641F2E440C1F6FF7049F25C61C0F2010109F048FB41F2E440F5
S32D0000D900C1F6FF70F96809F041FB41F25C40C1F6FF70F96807F098FCB868FEF7DDFE02460B4641F2E440C1F6C5
S32D0000D928FF7049F25C61C0F2010109F02BFB41F25C40C1F6FF70B96807F0CAFC7868FEF7C7FE02460B4641F25E
S32D0000D950E440C1F6FF7049F25C61C0F2010109F015FB41F25C40C1F6FF70796807F0B4FC41F2E440C1F6FF70B0
S32D0000D97849F26461C0F2010109F004FB41F25C40C1F6FF704FF00A0107F010FD07F11007BD4680BD80B584B0DA
S32D0000D9A000AFF860B9607A603B6005F085FF02460B4641F2E440C1F6FF7049F25C61C0F2010109F0E3FA41F280
S32D0000D9C8E440C1F6FF70F96809F0DCFA41F25C40C1F6FF70F96807F033FCB868FEF778FE02460B4641F2E440C0
S32D0000D9F0C1F6FF7049F25C61C0F2010109F0C6FA41F25C40C1F6FF70B96807F065FC7868FEF762FE02460B4642
S32D0000DA1841F2E440C1F6FF7049F25C61C0F2010109F0B0FA41F25C40C1F6FF70796807F04FFC3868FEF74CFE1D
S32D0000DA4002460B4641F2E440C1F6FF7049F25C61C0F2010109F09AFA41F25C40C1F6FF70396807F039FC41F274
S32D0000DA68E440C1F6FF7049F26461C0F2010109F089FA41F25C40C1F6FF704FF00A0107F095FC07F11007BD463D
S32D0000DA9080BD00BF80B584B000AFF860B9607A603B6005F009FF02460B4641F2E440C1F6FF7049F25C61C0F2B1
S32D0000DAB8010109F067FA41F2E440C1F6FF70F96809F060FA41F25C40C1F6FF70F96807F0B7FBB868FEF7FCFDA6
S32D0000DAE002460B4641F2E440C1F6FF7049F25C61C0F2010109F04AFA41F25C40C1F6FF70B96807F0E9FB786848
S32D0000DB08FEF7E6FD02460B4641F2E440C1F6FF7049F25C61C0F2010109F034FA41F25C40C1F6FF70796807F061
S32D0000DB30D3FB3868FEF7D0FD02460B4641F2E440C1F6FF7049F25C61C0F2010109F01EFA41F25C40C1F6FF70CF
S32D0000DB58396807F0BDFBB869FEF7BAFD02460B4641F2E440C1F6FF7049F25C61C0F2010109F008FA41F25C40F6
S32D0000DB80C1F6FF70B96907F0A7FB41F2E440C1F6FF7049F26461C0F2010109F0F7F941F25C40C1F6FF704FF048
S32D0000DBA80A0107F003FC07F11007BD4680BD00BF90B587B002AF41F2C440C1F6FF7008F0C9FF0346FB6041F21F
S32D0000DBD0C440C1F6FF7008F0D1FF0346BB6041F2C440C1F6FF7008F0D9FF03467B607868FFF7F2FB03464FF035
S32D0000DBF80102144618463949FFF7BAFB0346002B02D14FF000031C46E3B2002B55D041F21C13C1F6FF731B6839
S32D0000DC201846F968FFF780FB0346002B17D041F21C13C1F6FF735B681846B968FFF774FB0346002B0BD041F297
S32D0000DC481C13C1F6FF739B6818467968FFF768FB0346002B31D141F21C13C1F6FF73FA681A6041F21C13C1F6C5
S32D0000DC70FF73BA685A6041F21C13C1F6FF737A689A6005F019FE02460B4610461946FFF759F8024641F21C1386
S32D0000DC98C1F6FF73DA6041F21C13C1F6FF73DB68009349F26860C0F20100F968BA687B68FFF7ECFE4FF001035B
S32D0000DCC00AE049F27460C0F20100F968BA687B68FFF764FE4FF00003184607F11407BD4690BD00BF000000000A
S32D0000DCE8F0B587B000AFF860B9607A6049F2AC60C0F20100F968BA68FFF7E8FDF868796800F0DEF903467B61B3
S32D0000DD1005F0D2FD04460D46B8687969FFF724FA03461846FEF7D8FC02460B4620462946FEF774FB02460B4693
S32D0000DD3810461946FFF702F803463B6100BF05F0B7FD04460D463869FEF7C2FC02460B464FF001010E46204646
S32D0000DD602946FEF77FFF0346002B02D14FF000031E46F3B2002BE6D149F2B860C0F20100FFF724FD00F0FCF83E
S32D0000DD8807F11C07BD46F0BDB0B58AB000AFF860B9607A60BB6883F000431846F968FFF721F803467B62B8681C
S32D0000DDB0F968FFF71BF803463B62F868B968FFF715F80346FB61B868F968FFF711F80346BB61786AFFF700FB14
S32D0000DDD80446386AFFF7FCFA034620461946FFF713FB0446F869FFF7F3FA0546B869FFF7EFFA03462846194644
S32D0000DE00FFF706FB034620461946FFF701FB03467B617869FFF7E0FA03461846FEF75CFC02460B464FF0010159
S32D0000DE280C461046194650A3D3E90023FEF734FF0346002B02D14FF000031C46E3B2002B17D0786A7969FFF77F
S32D0000DE508BF903467B62386A7969FFF785F903463B62B8697969FFF77FF90346BB61F8697969FFF779F9034652
S32D0000DE78FB617868FFF7ACFA03461846FEF728FC02460B464FF001010C461046194636A3D3E90023FEF700FF57
S32D0000DEA00346002B02D14FF000031C46E3B2002B17D0786A7968FFF7A3F803467B62386A7968FFF79DF80346F1
S32D0000DEC83B62B8697968FFF797F80346BB61F8697968FFF791F80346FB61786A396AFA69BB6900F05BF8786A0C
S32D0000DEF0796AFFF785F803461C46386A396AFFF77FF8034620461946FEF772FF03461846FFF770FA034618462F
S32D0000DF18FEF7DEFB02460B461046194614A3D3E90023FEF729FC02460B4610461946FEF705FF03463B6149F2A8
S32D0000DF40CC60C0F20100796A3A6AFFF7C3FC49F2DC60C0F20100F968BA683B69FFF71EFD3B69184607F128070D
S32D0000DF68BD46B0BDAFF30080FCA9F1D24D62503F52B81E85EBD1284080B500AF49F2E860C0F20100FFF71EFC58
S32D0000DF9003480349024A024B00F004F880BD00BF0000000080B584B000AFF860B9607A603B60F8681949FFF795
S32D0000DFB823F8034641F23010C1F6FF70194600F0A7FBB8681349FFF717F8034641F23810C1F6FF70194600F093
S32D0000DFE09BFB78680D49FFF70BF8034641F24010C1F6FF70194600F08FFB38680749FEF7FFFF034641F24810CC
S32D0000E008C1F6FF70194600F083FB07F11007BD4680BD00BF0000C84290B583B000AF7860396049F2F060C0F20A
S32D0000E030010079683A68FFF74DFC7868FEF74CFB02460B46104619461BA3D3E90023FEF797FB02460B46104682
S32D0000E058194609F0A5F802460B4610461946FEF76DFE04467868FEF733FB02460B46104619460FA3D3E90023CB
S32D0000E080FEF77EFB02460B461046194609F0D6F802460B4610461946FEF754FE034620461946074AFFF774FE93
S32D0000E0A80346184607F10C07BD4690BDAFF3008011E7FAA146DF913F0000803FAFF3008080B582B000AF7860CF
S32D0000E0D0396049F2FC60C0F2010079683A68FFF7F9FB41F21C13C1F6FF739B6878681946FEF77CFE03461846EF
S32D0000E0F83968FFF791FF0346184607F10807BD4680BD00BF80B582B000AF786039607B68012B40D13A684FF698
S32D0000E120FF739A423BD141F23010C1F6FF704FF000011D4A00F068FA41F23810C1F6FF704FF00101184A00F0B1
S32D0000E1485FFA41F24010C1F6FF704FF00201144A00F056FA41F24810C1F6FF704FF003010F4A00F04DFA41F210
S32D0000E1705010C1F6FF704FF0000105F07FFD41F25410C1F6FF704FF0000106F031F941F26010C1F6FF704FF025
S32D0000E198010106F029F907F10807BD4680BD00BF6666E64080B500AF4FF001004FF6FF71FFF7A8FF80BD00BFD5
S32D0000E1C080B500AF41F66412C1F6FF7241F21C13C1F6FF73D31A194641F21C13C1F6FF731A460B4610464FF0D0
S32D0000E1E800011A460AF081F980BD00BF0BF0EAF900F0B0F9FFF7E0FF0BF0BCF90BF058F90BF0F0F900F00CF818
S32D0000E2104FF0000041F26C11C1F6FF71FFF708F9034618460AF040F980B500AF4FF4E043C4F204034FF4E0428D
S32D0000E238C4F2040202F5805202F13802126842F4785203F5805303F138031A6000F02EF900F094F841F2A83377
S32D0000E260C1F6FF734FF058021A6041F2A833C1F6FF731B684FF47A7202FB03F241F2A433C1F6FF731A6041F299
S32D0000E288A433C1F6FF731B681A464FF4E043C4F2040303F5825303F104031B6803F070634FEA136303F10103AA
S32D0000E2B0B2FBF3F31A4641F2AC33C1F6FF731A604FF4E043C4F204034FF4E042C4F2040202F5805202F13C025A
S32D0000E2D8126842F0225203F5805303F13C031A604FF4E043C4F204034FF4E042C4F2040202F5805202F130024E
S32D0000E300126842F0006203F5805303F130031A604FF45043C4F203034FF480721A614FF0640005F017F94FF448
S32D0000E3285043C4F203034FF45042C4F20302526922F010025A614FF45043C4F203034FF000021A604FF450432B
S32D0000E350C4F203034FF010025A6105F0D3FD05F07BFE41F2A030C1F6FF7005F077F941F25C40C1F6FF7006F02B
S32D0000E37879FB41F2883005F055FA80BD80B400AF4FF48043C4F206034FF000025A704FF48043C4F206034FF0E0
S32D0000E3A098021A704FF48043C4F206039B79DBB203F01003002B0CBF00230123DBB2002BF0D14FF48043C4F24D
S32D0000E3C806039B79DBB203F00C034FEA9303022B0CBF00230123DBB2002BEED14FF48043C4F206034FF01802D8
S32D0000E3F01A714FF48043C4F206034FF000025A714FF4E043C4F2040303F5825303F104034FF00002C0F21312A0
S32D0000E4181A604FF48043C4F206034FF054025A7100BF4FF48043C4F206039B79DBB203F02003002B14BF0023DB
S32D0000E4400123DBB2002BF0D100BF4FF48043C4F206039B79DBB203F04003002B14BF00230123DBB2002BF0D1F8
S32D0000E4684FF48043C4F206034FF48042C4F206021278D2B202F03F02D2B21A704FF48043C4F206039B79DBB249
S32D0000E49003F00C034FEA9303032B0CBF00230123DBB2002BEED14FF000031846BD4680BC704700BF80B400AF9E
S32D0000E4B84FF44043C4F204034FF480725A634FF2C003C4F20F034FF2C002C4F20F02526942F400525A614FF2EC
S32D0000E4E0C003C4F20F034FF2C002C4F20F02126842F400521A604FF44043C4F2040340F20312C0F20A021A6338
S32D0000E5084FF46143CEF200034FF46142CEF20002D2F8882142F08062C3F888214FF46143CEF200034FF4614218
S32D0000E530CEF20002926842F080629A60BD4680BC704700BF80B483B000AF7860FEE700BF80B400AF00BEBD4608
S32D0000E55880BC704780B400AF4FF0E0224CF20003C0F20003C2F8083D4FF40053C4F205034CF22052DA814FF4E7
S32D0000E5800053C4F205034DF62812DA814FF40053C4F205034FF0D2021A80BD4680BC704780B500AF4FF44043E3
S32D0000E5A8C4F20403D3F8A03003F48053002B0CBF00230123DBB2002B1FD04FF44043C4F204034FF44042C4F241
S32D0000E5D00402D2F8A02022F48052C3F8A02041F2E440C1F6FF7008F0B5FC4FF2C003C4F20F034FF2C002C4F27F
S32D0000E5F80F02126822F400521A6080BD0000000090B585B000AFF8600B467A60FB72FB68FA7A1A71FB684FF02E
S32D0000E62000025A714FF001031C4678682049FEF7A3FE0346002B02D14FF000031C46E3B2002B02D01A4B7B60BE
S32D0000E64811E04FF001031C4678681849FEF77CFE0346002B02D14FF000031C46E3B2002B01D0124B7B607868CA
S32D0000E670FEF732F802460B46104619460AA3D3E90023FEF77DF802460B4610461946FEF759FB0246FB681A605D
S32D0000E698FB68184607F11407BD4690BDAFF30080ABAAAAAAAAAA2040000040410000803F80B584B000AF786081
S32D0000E6C039603B687F2B03DD4FF07F03FB7309E03B6813F1800F03DA4FF08003FB7301E03B68FB737B685B7962
S32D0000E6E8FA7B9A420FD07B68FA7B5A717B681A79FB7B41F2A030C1F6FF7011461A464FF01E0304F0F1FF07F1A9
S32D0000E7101007BD4680BD00BFB0B584B000AF786039604FF001031C4638684D49FEF706FE0346002B02D14FF0B2
S32D0000E73800031C46E3B2002B02D0474B3B6011E04FF001031C4638684449FEF711FE0346002B02D14FF000033F
S32D0000E7601C46E3B2002B01D03E4B3B603868FDF7B3FF04460D467B681B681846FDF7ACFF02460B4610461946E0
S32D0000E7884FF000024FF0804303F5B203FEF71EF902460B4620462946FDF7EEFF02460B4610461946FEF7CAFA11
S32D0000E7B003463B604FF001031C4638682A49FEF7D1FD0346002B02D14FF000031C46E3B2002B14D03868FDF7B9
S32D0000E7D87FFF02460B46104619461DA3D3E90023FDF7CAFF02460B4610461946FEF75EFA0346FB6022E038680A
S32D0000E800FDF76AFF02460B46104619464FF000024FF0804303F5C003FDF7B2FF02460B46104619464FF000020D
S32D0000E8284FF0804303F5B203FEF7D0F802460B4610461946FEF73AFA0346FB607868F968FFF736FF07F11007C0
S32D0000E850BD46B0BDAFF3008052B81E85EB51F43F0000C8C20000C84200000000AFF3008080B485B000AF0246D6
S32D0000E8780B46FA71BB71BB79002B07D141F27013C1F6FF734FF000021A7006E041F27013C1F6FF734FF00102A2
S32D0000E8A01A704FF03803FB7341F27013C1F6FF731A78FB7B1343FB734FF4C043C4F206034FF4C042C4F2060225
S32D0000E8C89278D2B242F01002D2B29A704FF4C043C4F206034FF4C042C4F206029278D2B242F02002D2B29A704A
S32D0000E8F04FF4C043C4F20603FA7B1A7107F11407BD4680BC704700BF80B483B000AF4FF001037B6004E000BF56
S32D0000E9187B6803F101037B607B68312BCCBF00230123DBB2002BF2D107F10C07BD4680BC704700BF80B582B068
S32D0000E94000AF02460B46FA71BB7141F27113C1F6FF731B7818464FF00001FFF789FF4FF4C043C4F20603DB78E3
S32D0000E968DBB203F00203002B14BF00230123DBB2002BF0D14FF4C043C4F206034FF4C042C4F20602D278D2B268
S32D0000E99042F00202D2B2DA704FF4C043C4F20603FA791A714FF4C043C4F20603DB78DBB203F00203002B14BF77
S32D0000E9B800230123DBB2002BF0D14FF4C043C4F206034FF4C042C4F20602D278D2B242F00202D2B2DA704FF454
S32D0000E9E0C043C4F20603BA791A714FF4C043C4F20603DB78DBB203F00203002B14BF00230123DBB2002BF0D1EE
S32D0000EA084FF4C043C4F206034FF4C042C4F20602D278D2B242F00202D2B2DA704FF4C043C4F206034FF4C042BC
S32D0000EA30C4F206029278D2B222F02002D2B29A704FF4C043C4F206034FF4C042C4F206029278D2B222F01002F0
S32D0000EA58D2B29A70FFF754FF07F10807BD4680BD80B582B000AF0346FB71FB79184600F06BF807F10807BD4678
S32D0000EA8080BD00BF80B582B000AF02460B46FA71BB7100F039F8FB794FEA4303DBB21846FFF7E2FFBB791846BE
S32D0000EAA8FFF7DEFF00F03EF807F10807BD4680BD80B500AF4FF0FF0000F046F80346184680BD00BF80B584B0A4
S32D0000EAD000AF0346FB7100F017F8FB794FEA4303DBB243F00103DBB2DBB21846FFF7BCFFFFF7E2FF0346FB7347
S32D0000EAF800F018F8FB7B184607F11007BD4680BD80B400AF4FF24003C4F20F034FF24002C4F20F02926842F424
S32D0000EB2080129A60BD4680BC704700BF80B400AF4FF24003C4F20F034FF24002C4F20F02526842F480125A60D1
S32D0000EB48BD4680BC704700BF80B485B000AF0346FB714FF00003BB7303E0FB7B03F10103FB734FF44043C4F272
S32D0000EB700A03DB6A4FF00003002BF2D14FF44043C4F20A034FF44042C4F20A02D26A42F00042DA624FF4404333
S32D0000EB98C4F20A03FA795A6300BF4FF44043C4F20A03DB6A03F40033002B14BF00230123DBB2002BF1D14FF4A3
S32D0000EBC04043C4F20A039B6BBB73BB7B184607F11407BD4680BC704780B582B000AF4FF4E043C4F204034FF494
S32D0000EBE8E042C4F2040202F5805202F13002126842F4805203F5805303F130031A604FF42043C4F204034FF49F
S32D0000EC1080721A654FF24003C4F20F034FF24002C4F20F02526942F480125A61FFF77EFF4FF42043C4F20403BB
S32D0000EC384FF400725A654FF42043C4F204034FF400729A654FF42043C4F204034FF40072DA654FF44043C4F250
S32D0000EC600A034FF44062C8F200021A604FF44043C4F20A034FF00502C3F60062DA604FF000037B6007E04FF0F7
S32D0000EC88FF00FFF7EDFE7B6803F101037B607B68092BCCBF00230123DBB2002BEFD104A1D1E9000104F0D8FD3E
S32D0000ECB007F10807BD4680BD9A9999999999B93F90B486B000AFF860B9607A60FA684FF42043C4F206039A4249
S32D0000ECD814D14FF4E043C4F204034FF4E042C4F2040202F5805202F13402126842F4806203F5805303F134036B
S32D0000ED001A6083E0FA684FF43043C4F206039A4214D14FF4E043C4F204034FF4E042C4F2040202F5805202F170
S32D0000ED283402126842F4006203F5805303F134031A6067E0FA684FF44043C4F206039A4214D14FF4E043C4F2FA
S32D0000ED5004034FF4E042C4F2040202F5805202F13402126842F4805203F5805303F134031A604BE0FA684FF4B9
S32D0000ED785043C4F206039A4214D14FF4E043C4F204034FF4E042C4F2040202F5805202F13402126842F4005222
S32D0000EDA003F5805303F134031A602FE0FA684FF42043C4F20E039A4214D14FF4E043C4F204034FF4E042C4F2F8
S32D0000EDC8040202F5805202F12802126842F4806203F5805303F128031A6013E04FF4E043C4F204034FF4E042C0
S32D0000EDF0C4F2040202F5805202F12802126842F4006203F5805303F128031A60FB68DB78DBB223F00C03DAB2EC
S32D0000EE18FB68DA70FB684FF000029A70BB684FF47A7202FB03F27B684FEA031392FBF3F39CB2FB681B78DBB2B7
S32D0000EE4023F01F03FB75234603F4F8534FEA2323DBB203F01F03DAB2FB7D1343DAB2FB681A70E2B2FB685A709F
S32D0000EE68BB684FF4FA4202FB03F27B684FEA031392FBF3F39AB2234619464FEAC121CB1A4FEA43139BB2D31868
S32D0000EE909CB2FB689B7ADBB223F01F03FB75E3B203F01F03DAB2FB7D1343DAB2FB689A72FB68DB78DBB243F0E7
S32D0000EEB80C03DAB2FB68DA7007F11807BD4690BC704700BF80B483B000AF786000BF7B681B79DBB203F0200341
S32D0000EEE0002B14BF00230123DBB2002BF3D17B68DB79DBB2184607F10C07BD4680BC704780B483B000AF786032
S32D0000EF080B46FB7000BF7B681B79DBB2DBB26FEA0303DBB24FEAD313DBB2002BF3D17B68FA78DA7107F10C079D
S32D0000EF30BD4680BC704700BF80B487B000AFF860B9607A60FB687B61BB683B610BE03B691A787B691A707B6928
S32D0000EF5803F101037B613B6903F101033B617B68002B0CBF00230123DBB27A6802F1FF327A60002BE7D107F117
S32D0000EF801C07BD4680BC704780B487B000AFF860B9607A60FB687B6107E0BB68DAB27B691A707B6903F10103C6
S32D0000EFA87B617B68002B0CBF00230123DBB27A6802F1FF327A60002BEBD107F11C07BD4680BC704780B489B06D
S32D0000EFD000AFF860B9607A60FB68FB61BB68BB614FF000037B617B68002B0CBF00230123DBB27A6802F1FF324A
S32D0000EFF87A60002B19D0FB691B781A46BB691B78D31A7B617B69002B14BF00230123DBB2FA6902F10102FA61BC
S32D0000F020BA6902F10102BA61002B02D04FF0010301E04FF00003002BD5D17B69184607F12407BD4680BC7047FF
S32D0000F04880B483B000AF7860396003E07B6803F101037B607B681B78002B08D07B681B781A463B689A4202D0DA
S32D0000F0704FF0010301E04FF00003002BEAD17B681B78184607F10C07BD4680BC704700BF80B584B000AF7860A2
S32D0000F09839607B681B6BFB60FA683B689A4264D07B681B79002B43D07B685A787B6803F1340310461946FA6849
S32D0000F0C04FF0010304F0B4F80346002B0CBF00230123DBB2002B02D04FF001034BE07B684FF000021A717B682F
S32D0000F0E85A6A7B681B6AD218FB689A4220D97B68DB78FB7214E07B681B6AFA68D318FB607B685A787B6803F179
S32D0000F110340310461946FA684FF0010304F088F8FB7A03F1FF33FB72FB7A012B94BF00230123DBB2002BE2D11E
S32D0000F1383B68002B19D07B685A787B6803F13403104619463A684FF0010303F05FFF0346002B0CBF00230123BE
S32D0000F160DBB2002B02D04FF0010304E07B683A681A634FF00003184607F11007BD4680BD80B584B000AF7860EF
S32D0000F18878684FF00001FFF77FFF0346FB73FB7B002B40F0AE807B681B78032B40F095807B685B79002B00F054
S32D0000F1B090807B684FF000021A637B6803F1340318464FF000014FF40072FFF7DDFE7B684FF0550283F8322206
S32D0000F1D87B684FF0AA0283F833227B684FF0520283F834207B684FF0520283F835207B684FF0610283F836208A
S32D0000F2007B684FF0410283F837207B684FF0720283F818227B684FF0720283F819227B684FF0410283F81A22F6
S32D0000F2287B684FF0610283F81B227B681B69DAB27B6883F81C227B681B699BB24FEA2323DAB27B6883F81D2290
S32D0000F2507B681B694FEA1343DAB27B6883F81E227B681B694FEA1363DAB27B6883F81F227B68DB68DAB27B689A
S32D0000F27883F820227B68DB689BB24FEA2323DAB27B6883F821227B68DB684FEA1343DAB27B6883F822227B68C6
S32D0000F2A0DB684FEA1363DAB27B6883F823227B6859787B6803F134027B685B69084611461A464FF0010303F07C
S32D0000F2C8B3FF7B684FF000025A717B685B7818464FF000014FF0000204F08CF80346002B0CBF00230123DBB257
S32D0000F2F0002B02D04FF00103FB73FB7B184607F11007BD4680BD00BF80B483B000AF786039603B68A3F102039D
S32D0000F3183B607B68DB69A3F102023B689A4202D84FF0000307E07B689B783A6802FB03F27B68DB6AD3181846F0
S32D0000F34007F10C07BD4680BC704700BF80B586B000AF786039603B68012B04D97B68DA693B689A4202D84FF0EA
S32D0000F3680103D3E07B681B78022B5FD0032B00F08A80012B40F0C8803B687B617B694FEA53037A69D3187B6186
S32D0000F3907B685A6A7B694FEA5323D31878681946FFF776FE0346002B0CBF00230123DBB2002B40F0A6807B6909
S32D0000F3B84FEAC3534FEAD3537A68D31893F834303B617B6903F101037B617B685A6A7B694FEA5323D318786864
S32D0000F3E01946FFF755FE0346002B0CBF00230123DBB2002B40F087807B694FEAC3534FEAD3537A68D31893F8F8
S32D0000F40834304FEA03233A6913433B613B6803F00103DBB2002B03D03B694FEA131304E03B694FEA03534FEA06
S32D0000F43013536FE07B685A6A3B684FEA1323D31878681946FFF724FE0346002B0CBF00230123DBB2002B58D197
S32D0000F4583B684FEA43034FEAC3534FEAD35303F130037A68D31803F10403FB60FB6803F101031B784FEA03231F
S32D0000F4809AB2FB681B7813439BB29BB242E07B685A6A3B684FEAD313D31878681946FFF7F7FD0346002B0CBF4E
S32D0000F4A800230123DBB2002B2DD13B684FEA83034FEAC3534FEAD35303F130037A68D31803F10403FB60FB687C
S32D0000F4D003F103031B784FEA0362FB6803F102031B784FEA03431A43FB6803F101031B784FEA03231A43FB680B
S32D0000F4F81B78134323F0704308E000BF04E000BF02E000BF00E000BF4FF0FF33184607F11807BD4680BD00BFC8
S32D0000F52080B588B000AFF860B9607A60BB68012B04D9FB68DA69BB689A4203D84FF00203FB771AE1FB681B7803
S32D0000F548022B00F08580032B00F0AD80012B40F00181BB68BB61BB694FEA5303BA69D318BB61FB685A6ABB69E3
S32D0000F5704FEA5323D318F8681946FFF789FD0346FB77FB7F002B40F0ED80BB694FEAC3534FEAD35303F13003A2
S32D0000F598FA68D31803F104037B61BB6803F00103DBB2002B0ED07B691B78DBB203F00F03DAB27B68DBB24FEA33
S32D0000F5C00313DBB21343DBB2DBB201E07B68DBB27A691370BB6903F10103BB61FB684FF001021A71FB685A6AC4
S32D0000F5E8BB694FEA5323D318F8681946FFF74CFD0346FB77FB7F002B40F0B280BB694FEAC3534FEAD35303F1B1
S32D0000F6103003FA68D31803F104037B61BB6803F00103DBB2002B04D07B684FEA1313DBB20FE07B691B78DBB20D
S32D0000F63823F00F03DAB27B684FEA1323DBB203F00F03DBB21343DBB2DBB27A6913708CE0FB685A6ABB684FEABD
S32D0000F6601323D318F8681946FFF712FD0346FB77FB7F002B7AD1BB684FEA43034FEAC3534FEAD35303F1300375
S32D0000F688FA68D31803F104037B617B68DAB27B691A707B6903F101037A6892B24FEA2222D2B21A7061E0FB6822
S32D0000F6B05A6ABB684FEAD313D318F8681946FFF7E7FC0346FB77FB7F002B51D1BB684FEA83034FEAC3534FEAB7
S32D0000F6D8D35303F13003FA68D31803F104037B617B6903F103031B784FEA03627B6903F102031B784FEA034395
S32D0000F7001A437B6903F101031B784FEA03231A437B691B78134303F070437A6813437B607B68DAB27B691A70F0
S32D0000F7287B6903F101037A6892B24FEA2222D2B21A707B6903F102037A684FEA1242D2B21A707B6903F10303EE
S32D0000F7507A684FEA1262D2B21A700AE04FF00203FB7706E000BF04E000BF02E000BF00E000BFFB684FF0010221
S32D0000F7781A71FB7F184607F12007BD4680BD00BF80B584B000AF786039603B68012B04D97B68DA693B689A4208
S32D0000F7A003D84FF00203FB7345E04FF00003FB7333E078683968FFF7C9FD0346BB60BB68002B35D0BB68012B83
S32D0000F7C803D14FF00203FB7331E0BB68B3F1FF3F03D14FF00103FB7329E0786839684FF00002FFF799FE034651
S32D0000F7F0FB73FB7B002B1DD17B681B69B3F1FF3F09D07B681B6903F101027B681A617B684FF001025A71BB68FD
S32D0000F8183B607B68DA693B689A4294BF00230123DBB2002BC1D102E000BF00E000BFFB7B184607F11007BD4678
S32D0000F84080BD00BF80B586B000AF786039603B68002B0ED17B68DB683B613B69002B04D07B68DA693B699A425B
S32D0000F86818D84FF001033B6114E078683968FFF769FD0346BB60BB68012B02D84FF001036EE07B68DA69BB686B
S32D0000F8909A4201D9BB6867E03B683B613B697B6100E000BF7B6903F101037B617B68DA697B699A4209D84FF00E
S32D0000F8B802037B617A693B699A4202D94FF000034EE078687969FFF73DFD0346BB60BB68002B0FD0BB68B3F149
S32D0000F8E0FF3F02D0BB68012B01D1BB683CE07A693B699A42D5D14FF0000335E000BF786879696FF07042FFF7A2
S32D0000F9080BFE0346FB73FB7B002B09D13B68002B06D0786839687A69FFF7FEFD0346FB73FB7B002B12D17B687F
S32D0000F9307A69DA607B681B69B3F1FF3F13D07B681B6903F1FF327B681A617B684FF001025A7108E0FB7B012BFC
S32D0000F95802D14FF0FF3301E04FF001037B617B69184607F11807BD4680BD00BF80B487B000AF786039607B6877
S32D0000F9805B6A03F104033B613B684FEA53227B681B689B78B2FBF3F37B613B691B68FB603B6903F104033B6107
S32D0000F9A8FB68002B02D14FF0000311E07A69FB689A4208D37A69FB68D31A7B613B6903F104033B61E5E700BFCB
S32D0000F9D03B691A687B69D318184607F11C07BD4680BC704780B584B000AF78600B467B807B687A88DA807B6847
S32D0000F9F89B68FB60FB68012B05D07B681B68DA69FB689A4202D84FF0020373E0FB68002B08D17B681B681B7866
S32D0000FA20032B03D17B681B689B6AFB60FB68002B16D17B68FA68DA607B681B681B897A889A4202D34FF00203FB
S32D0000FA4858E07B681B689A6A7B884FEA13139BB2D2187B681A613FE07B681B689B784FEA03137B811EE07B6833
S32D0000FA701B681846F968FFF769FC0346FB60FB68B3F1FF3F02D14FF0010337E0FB68012B05D97B681B68DA699F
S32D0000FA98FB689A4202D84FF002032BE07A887B89D31A7B807A887B899A4234BF00230123DBB2002BD7D17B688B
S32D0000FAC0FA68DA607B681B681846F968FFF71CFC02467B884FEA13139BB2D2187B681A617B681B6803F134027A
S32D0000FAE87B8803F00F034FEA4313D2187B685A614FF00003184607F11007BD4680BD00BF90B585B000AF786022
S32D0000FB1039607B68DB8803F101033B813B89002B03D07B681B69002B02D14FF00403E4E03B8903F00F03002B0F
S32D0000FB3840F0CE807B681B6903F101027B681A617B68DB68002B09D17B681B681B893A899A42C0F0BD804FF065
S32D0000FB600403CAE03B894FEA13139BB21A467B681B689B7803F1FF331340002B40F0AC807B681A687B68DB68F2
S32D0000FB8810461946FFF7DEFB0346FB60FB68012B02D84FF00203ACE0FB68B3F1FF3F02D14FF00103A5E07B682B
S32D0000FBB01B68DA69FB689A4200F282803B68002B02D14FF0040398E07B681A687B68DB6810461946FFF736FE65
S32D0000FBD80346FB60FB68002B02D14FF0070388E0FB68012B02D14FF0020382E0FB68B3F1FF3F02D14FF00103E6
S32D0000FC007BE07B681B6818464FF00001FFF740FA0346002B0CBF00230123DBB2002B02D04FF0010369E07B68C8
S32D0000FC281B6803F1340318464FF000014FF40072FFF7A6F97B681C687B681B681846F968FFF75EFB034623636E
S32D0000FC504FF00003FB7220E07B681B684FF001021A717B681B6818464FF00001FFF710FA0346002B0CBF00233E
S32D0000FC780123DBB2002B02D04FF0010339E07B681B681A6B02F101021A63FB7A03F10103FB727B681B689B78A3
S32D0000FCA0FA7A9A422CBF00230123DBB2002BD3D17B681B687A681268116BFA7A8A1A1A637B68FA68DA607B6823
S32D0000FCC81B681846F968FFF71BFB02467B681A617B683A89DA807B681B6803F134023B8903F00F034FEA431332
S32D0000FCF0D2187B685A614FF00003184607F11407BD4690BD80B586B000AF786078684FF00001FFF767FE0346A5
S32D0000FD18FB75FB7D002B01D0FB7D47E07B681A687B681B6910461946FFF7AEF90346FB75FB7D002B36D17B68D6
S32D0000FD405B693B613B691B78FB73FB7B002B03D14FF00403FB752CE03B6903F10B031B7803F00803002B0DD119
S32D0000FD687B689B69386919464FF00B02FFF72AF90346002B02D14FF0010301E04FF00003002B11D178684FF048
S32D0000FD900001FFF7B9FE0346FB75FB7D002B14BF00230123DBB2002BBCD102E000BF00E000BFFB7D184607F1CE
S32D0000FDB81807BD4680BD00BF80B584B000AF786078684FF00001FFF709FE0346FB73FB7B002B29D17B681A683B
S32D0000FDE07B681B6910461946FFF752F90346FB73FB7B002B19D17B685B691B78BB73BB7BE52B14D0BB7B002B63
S32D0000FE0811D078684FF00101FFF77AFE0346FB73FB7B002B14BF00230123DBB2002BD9D102E000BF00E000BF48
S32D0000FE30FB7B002B23D17B681A687B681B6910461946FFF725F90346FB73FB7B002B16D17B685B69BB60B86859
S32D0000FE584FF000014FF02002FFF792F87B689B69B86819464FF00B02FFF762F87B681B684FF001021A71FB7BB0
S32D0000FE80184607F11007BD4680BD00BF80B588B000AF786039603B681B68FB6003E0FB6803F10103FB60FB68DE
S32D0000FEA81B782F2B03D0FB681B785C2B02D14FF0010301E04FF00003002BECD17B689B69BB60B8684FF020014C
S32D0000FED04FF00B02FFF758F84FF00003FB774FF000033B613B697B614FF00803BB61FA687B69D3181B782E2BDD
S32D0000FEF839D1FA687B69D3181B78BB777B6903F101037B61BB7F2E2B0CD17B69022B09D8BA683B69D318BA7FD8
S32D0000FF201A703B6903F101033B61E6E700BFBB7F2F2B08D0BB7F5C2B05D0BB7F202B02D94FF00603C5E0FA68B4
S32D0000FF487B69D2183B681A60BB6803F10B02BB7F202B02D84FF0240301E04FF0200313704FF00003B1E0FA68BC
S32D0000FF707B69D3181B78BB777B6903F101037B61BB7F202B68D9BB7F2F2B65D0BB7F5C2B62D0BB7F2E2B03D02F
S32D0000FF983A69BB699A4214D3BB69082B02D1BB7F2E2B02D04FF006038FE04FF008033B614FF00B03BB61FB7FA2
S32D0000FFC04FEA8303FB7700BFD1E7BB7F5BB2002B0CDAFB7F43F00303FB77BB7FA3F1800249F6D803C0F20103CE
S32D0000FFE89B5CBB77BB7F49F24070C0F201001946FFF726F80346002B0CBF00230123DBB2002B02D04FF006031F
S32D000100105FE0BB7F402B07D9BB7F5A2B04D8FB7F43F00203FB770DE0BB7F602B0AD9BB7F7A2B07D8FB7F43F03E
S32D000100380103FB77BB7FA3F12003BB77BA683B69D318BA7F1A703B6903F101033B618AE700BFFA687B69D218F4
S32D000100603B681A60BB7F202B02D84FF0040301E04FF00003BB773B69002B02D14FF0060327E0BB681B78E52BA3
S32D0001008803D1BB684FF005021A70BB69082B03D1FB7F4FEA8303FB77FB7F03F00303012B03D1BB7F43F01003B9
S32D000100B0BB77FB7F03F00C03042B03D1BB7F43F00803BB77BB6803F10B03BA7F1A704FF00003184607F120071F
S32D000100D8BD4680BD80B584B000AF786039603B681B782F2B03D03B681B785C2B08D13B6803F101033B607B681E
S32D000101004FF000029A6004E07B681B689A697B689A603B681B781F2B0BD878684FF00001FFF760FC0346FB73DF
S32D000101287B684FF000025A6175E03B4678681946FFF7A8FE0346FB73FB7B002B64D17868FFF7DCFD0346FB7325
S32D000101507B689B69DB7ABB73FB7B002B21D0FB7B042B57D1BB7B03F02003002B10D07B684FF000029A607B685F
S32D000101784FF000025A614FF00003FB73BB7B03F00403002B44D13EE0BB7B03F00403002B3ED14FF00503FB73FF
S32D000101A03AE0BB7B03F00403002B37D17B685B69BB60BB6803F10B031B7803F01003002B03D14FF00503FB737F
S32D000101C829E0BB6803F115031B784FEA03239AB2BB6803F114031B7813439BB29BB24FEA0342BB6803F11B032E
S32D000101F01B784FEA032399B2BB6803F11A031B780B439BB29BB21A437B689A6091E790E700BF04E000BF02E087
S32D0001021800BF00E000BFFB7B184607F11007BD4680BD00BF80B582B000AF786039607B685A787B6803F134032D
S32D00010240104619463A684FF0010302F0E3FE0346002B0CBF00230123DBB2002B02D04FF0030356E07B6893F829
S32D0001026833324FEA03239AB27B6893F8323213439BB21AB24AF65523CFF6FF739A4202D04FF0020341E07B6831
S32D0001029093F86D304FEA03627B6893F86C304FEA03431A437B6893F86B304FEA03231A437B6893F86A30134370
S32D000102B823F07F4244F24613C0F254039A4202D14FF0000321E07B6893F889304FEA03627B6893F888304FEA95
S32D000102E003431A437B6893F887304FEA03231A437B6893F88630134323F07F4244F24613C0F254039A4202D1D6
S32D000103084FF0000301E04FF00103184607F10807BD4680BD80B592B000AFF860B9601346FB71FB681B68FB621C
S32D00010330FB6A1B78A3F130033B643B6C092B0DD8FB6A03F101031B783A2B07D1FB6A03F10203FB62FB68FA6AD1
S32D000103581A6005E041F27A13C1F6FF731B783B643B6C002B02D04FF00B03C9E241F27413C1F6FF733A6C53F88C
S32D000103802230BB62BB68BA6A1A60BB6A002B02D14FF00C03B8E2BB6A1B78002B20D0BB6A5B78184603F0BEF841
S32D000103A8034687F8273097F8273003F00103DBB283F00103DBB2002B0ED0FB79002B08D097F8273003F0040339
S32D000103D0002B02D04FF00A0396E24FF0000393E2BB6A4FF000021A703B6CDAB2BB6A5A70BB6A5B78184602F02C
S32D000103F84FFB034687F8273097F8273003F00103DBB2002B02D04FF0030379E2FB79002B08D097F8273003F016
S32D000104200403002B02D04FF00A036DE24FF00003FB63B86AF96BFFF7F9FE034687F8473097F84730012B2AD18F
S32D00010448BB6A03F5F9733B623B6A03F104031B78002B20D03B6A03F10B031B784FEA03623B6A03F10A031B7800
S32D000104704FEA03431A433B6A03F109031B784FEA03231A433B6A03F108031B781343FB63B86AF96BFFF7CAFE5E
S32D00010498034687F8473097F84730032B02D14FF001032DE297F84730002B02D04FF00D0326E2BB6A93F8403023
S32D000104C04FEA03239AB2BB6A93F83F3013439BB21BB2B3F5007F02D04FF00D0314E2BB6A93F84B304FEA03230B
S32D000104E89AB2BB6A93F84A3013439BB29BB2BB63BB6B002B15D1BB6A93F85B304FEA0362BB6A93F85A304FEADE
S32D0001051003431A43BB6A93F859304FEA03231A43BB6A93F858301343BB63BB6ABA6B1A62BB6A93F84430FB771C
S32D00010538BB6AFA7FDA70FB7F012B05D0FB7F022B02D04FF00D03DBE1FA7FBB6B02FB03F3BB63BB6A93F84130DC
S32D00010560FB77BB6AFA7F9A70FB7F002B06D0FA7FFB7F03F1FF331340002B02D04FF00D03C2E1BB6A93F8463056
S32D000105884FEA03239AB2BB6A93F8453013439BB29AB2BB6A1A81BB6A1B8903F00F03002B02D04FF00D03ABE11F
S32D000105B0BB6A93F848304FEA03239AB2BB6A93F8473013439BB29BB27B637B6B002B15D1BB6A93F857304FEAED
S32D000105D80362BB6A93F856304FEA03431A43BB6A93F855304FEA03231A43BB6A93F8543013437B63BB6A93F874
S32D0001060043304FEA03239AB2BB6A93F8423013439BB2BB83BB8B002B02D14FF00D0373E1BA8BBB6BD218BB6A49
S32D000106281B894FEA13139BB2D318BB617A6BBB699A4202D24FF00D0362E17A6BBB69D21ABB6A9B78B2FBF3F341
S32D000106507B617B69002B02D14FF00D0354E14FF0010387F847307A6940F6F5739A4203D94FF0020387F847308D
S32D000106787A694FF6F5739A4203D94FF0030387F847307B6903F10202BB6ADA61FA6BBB69D218BB6ADA62BA8B7B
S32D000106A0FB6BD218BB6A5A6297F84730032B23D1BB6A1B89002B02D04FF00D0324E1BB6A93F863304FEA0362D7
S32D000106C8BB6A93F862304FEA03431A43BB6A93F861304FEA03231A43BB6A93F860301A43BB6A9A62BB6ADB69C1
S32D000106F04FEA83033B6323E0BB6A1B89002B02D14FF00D0300E1BB6A5A6ABB6BD218BB6A9A6297F84730022B37
S32D0001071804D1BB6ADB694FEA43030CE0BB6ADA6913464FEA43039B184FEA5302BB6ADB6903F00103D3183B639F
S32D00010740BB6A1A6A3B6B03F5FE7303F103034FEA53239A4202D24FF00D03D5E0BB6A4FF0FF321A61BB6A4FF001
S32D000107680002DA6097F84730032B40F0A380BB6A4FF000025A71BB6A93F865304FEA03239AB2BB6A93F864303A
S32D0001079013439BB29BB21A46FB6BD218BB6A5A61BB6A5978BB6A03F13402BB6A5B69084611461A464FF0010344
S32D000107B802F02CFC0346002B4AD1BB6A93F833324FEA03239AB2BB6A93F8323213439BB21AB24AF65523CFF6A9
S32D000107E0FF739A4238D1BB6A93F837304FEA0362BB6A93F836304FEA03431A43BB6A93F835304FEA03231A431B
S32D00010808BB6A93F834301A4345F25223C4F261139A421DD1BB6A93F81B324FEA0362BB6A93F81A324FEA03439A
S32D000108301A43BB6A93F819324FEA03231A43BB6A93F818321A4347F27223C6F241139A4202D14FF0010301E081
S32D000108584FF00003002B2DD0BB6A93F823324FEA0362BB6A93F822324FEA03431A43BB6A93F821324FEA032322
S32D000108801A43BB6A93F820321A43BB6ADA60BB6A93F81F324FEA0362BB6A93F81E324FEA03431A43BB6A93F803
S32D000108A81D324FEA03231A43BB6A93F81C321A43BB6A1A61BB6A97F847201A7041F27813C1F6FF731B8803F1F8
S32D000108D001039AB241F27813C1F6FF731A8041F27813C1F6FF731A88BB6ADA80BB6A4FF000021A63BB6A4FF0D9
S32D000108F800021A71BB6A4FF000029A614FF00003184607F14807BD4680BD00BF80B582B000AF78600B467B80C3
S32D000109207B68002B08D07B681B78002B04D07B68DB887A889A4202D04FF009030FE07B685B78184602F0EEFD2C
S32D00010948034603F00103DBB2002B02D04FF0030301E04FF00003184607F10807BD4680BD80B485B000AF034648
S32D000109703960FB71FB79002B02D04FF00B031FE0FA7941F27413C1F6FF7353F82230FB60FB68002B03D0FB6884
S32D000109984FF000021A703B68002B03D03B684FF000021A70FA7941F27413C1F6FF73396843F822104FF00003B0
S32D000109C0184607F11407BD4680BC704780B592B000AFF860B9601346FB71FB684FF000021A60FB7903F01F039E
S32D000109E8FB71FB7923F00103DBB207F1080107F11C02084611461A46FFF78CFC034687F8473007F110037B639A
S32D00010A1097F84730002B09D1BB6807F11C0210461946FFF75BFB034687F847303B6B3B6497F84730002B06D1E6
S32D00010A383B6C002B03D14FF0060387F84730FB7903F01C03002B00F0D48097F84730002B12D097F84730042B6E
S32D00010A6007D107F11C031846FFF7AAF9034687F84730FB7943F00803FB713B6B3B6415E03B6C03F10B031B78AE
S32D00010A8803F01103002B04D04FF0070387F8473008E0FB7903F00403002B03D04FF0080387F8473097F8473060
S32D00010AB0002B40F0C580FB7903F00803002B00F0BF804FF00003FB633B6C03F10E03FA6BD2B21A703B6C03F151
S32D00010AD80F03FA6B92B24FEA2222D2B21A703B6C03F11003FA6B4FEA1242D2B21A703B6C03F11103FA6B4FEAAE
S32D00010B001262D2B21A703B6C03F10B034FF000021A703B6C03F11C034FF000021A703B6C03F11D034FF000024F
S32D00010B281A703B6C03F11E034FF000021A703B6C03F11F034FF000021A703B6C03F115031B784FEA03239AB214
S32D00010B503B6C03F114031B7813439BB29BB24FEA03423B6C03F11B031B784FEA032399B23B6C03F11A031B7882
S32D00010B780B439BB29BB21343BB633B6C03F11A034FF000021A703B6C03F11B034FF000021A703B6C03F1140339
S32D00010BA04FF000021A703B6C03F115034FF000021A70FB694FF001021A71BB6B002B3FD0FB691B6BFB63FB69A0
S32D00010BC81846B96BFEF7DCFD034687F8473097F84730002B30D1FB69BA6B02F1FF32DA60FB691846F96BFEF73B
S32D00010BF04FFA034687F8473022E097F84730002B1ED13B6C03F10B031B7803F01003002B04D04FF0040387F826
S32D00010C18473011E0FB7903F00203002B0CD03B6C03F10B031B7803F00103DBB2002B03D04FF0070387F84730D5
S32D00010C4097F84730002B0FD1FB7903F00803002B03D0FB7943F02003FB71FB691A6BFB68DA61FB683A6C1A62C2
S32D00010C6897F84730002B51D1FB68FA799A713B6C03F115031B784FEA03239AB23B6C03F114031B7813439BB250
S32D00010C909BB24FEA03423B6C03F11B031B784FEA032399B23B6C03F11A031B780B439BB29BB21A43FB681A6106
S32D00010CB83B6C03F11F031B784FEA03623B6C03F11E031B784FEA03431A433B6C03F11D031B784FEA03231A43EA
S32D00010CE03B6C03F11C031B781A43FB68DA60FB684FF000029A60FB684FF000029A61FB684FF000025A62FA699E
S32D00010D08FB681A60FB69DA88FB689A8097F84730184607F14807BD4680BD00BF80B58AB000AFF860B9607A6089
S32D00010D303B60BB68BB613B684FF000021A60FB681A68FB689B8810461946FFF7E3FD0346FB75FB7D002B01D039
S32D00010D58FB7DACE1FB689B79DBB25BB2002B02DA4FF00203A3E1FB689B7903F00203002B02D14FF007039AE156
S32D00010D80FB68DA687B68D218FB68DB689A4280F074814FF000037B606FE1FB689B684FEAC3534FEAD353002B3F
S32D00010DA840F02E81FB689B684FEA5323DAB2FB681B689B7803F1FF33DBB21340BB75BB7D002B4FD1FB689B6884
S32D00010DD0002B12D1FB681B697B627B6A002B23D1FB681B6818464FF00001FEF72BFD03467B62FB687A6A1A6195
S32D00010DF816E0FB685B6A002B08D0FB689B68F8681946FEF7B3FD03467B6209E0FB681A68FB685B691046194611
S32D00010E20FEF710FD03467B627B6A002B00F02F817B6A012B09D1FB689B7963F07F03DAB2FB689A714FF0020356
S32D00010E4835E17B6AB3F1FF3F09D1FB689B7963F07F03DAB2FB689A714FF0010327E1FB687A6A5A61FB689B79BA
S32D00010E7003F04003002B27D0FB681B685978FB6803F12802FB689B69084611461A464FF0010302F0CDF9034613
S32D00010E98002B0CBF00230123DBB2002B09D0FB689B7963F07F03DAB2FB689A714FF00103FDE0FB689B7923F06D
S32D00010EC04003DAB2FB689A71FB681A68FB685B6910461946FEF718FA03463B613B69002B09D1FB689B7963F0A6
S32D00010EE87F03DAB2FB689A714FF00203DFE0BB7D3A69D3183B617B684FEA5323FB61FB69002B4ED0BA7DFB69C4
S32D00010F10D218FB681B689B789A4206D9FB681B689B781A46BB7DD31AFB61FB681B685A78FB69DBB21046B96919
S32D00010F383A6902F079F90346002B0CBF00230123DBB2002B09D0FB689B7963F07F03DAB2FB689A714FF00103E3
S32D00010F60A9E0FB689A693B69D21AFB699A4217D2FB6803F12802FB6899693B69CB1A4FEA4323B969CB18104651
S32D00010F8819464FF40072FDF7D3FFFB689B7923F04003DAB2FB689A71FB694FEA43233B6253E0FB689A693B69BC
S32D00010FB09A4226D0FB689A68FB68DB689A4212D2FB681B685A78FB6803F12803104619463A694FF0010302F0AE
S32D00010FD81DF80346002B02D04FF0010301E04FF00003002B09D0FB689B7963F07F03DAB2FB689A714FF001039C
S32D0001100059E0FB683A699A61FB689B684FEAC3534FEAD353C3F500733B623A6A7B689A4201D97B683B62FB688B
S32D000110289B684FEAC3534FEAD35303F12803FA68D3181846B9693A6AFDF77AFFFB689B7943F04003DAB2FB680F
S32D000110509A71BA693B6AD318BB61FB689A683B6AD218FB689A603B681A683B6AD2183B681A607A683B6AD31A01
S32D000110787B607B68002B0CBF00230123DBB2002B7FF487AE00E000BFFB689A68FB68DB689A4203D9FB689A6827
S32D000110A0FB68DA60FB689B7943F02003DAB2FB689A714FF00003184607F12807BD4680BD80B586B000AF7860C4
S32D000110C87B681A687B689B8810461946FFF71EFC0346FB75FB7D002B40F0C8807B689B7903F02003002B00F0CD
S32D000110F0C1807B689B7903F04003002B20D07B681B6859787B6803F128027B689B69084611461A464FF00103E1
S32D0001111802F08AF80346002B0CBF00230123DBB2002B02D04FF00103A1E07B689B7923F04003DAB27B689A7199
S32D000111407B681A687B68DB6910461946FDF7A0FF0346FB75FB7D002B40F08C807B681B6A3B613B6903F10B036A
S32D000111683A6902F10B02127842F02002D2B21A703B6903F11C037A68D268D2B21A703B6903F11D037A68D26814
S32D0001119092B24FEA2222D2B21A703B6903F11E037A68D2684FEA1242D2B21A703B6903F11F037A68D2684FEAE2
S32D000111B81262D2B21A703B6903F11A037A681269D2B21A703B6903F11B037A68126992B24FEA2222D2B21A7084
S32D000111E03B6903F114037A6812694FEA1242D2B21A703B6903F115037A6812694FEA124292B24FEA2222D2B25A
S32D000112081A704FF00003FB603B6903F11603FA68D2B21A703B6903F11703FA6892B24FEA2222D2B21A703B69E8
S32D0001123003F11803FA684FEA1242D2B21A703B6903F11903FA684FEA1262D2B21A707B689B7923F02003DAB2F9
S32D000112587B689A717B681B684FF001021A717B681B681846FDF788FF0346FB75FB7D184607F11807BD4680BD21
S32D0001128080B584B000AF78607868FFF719FF0346FB73FB7B002B03D17B684FF000021A60FB7B184607F11007B4
S32D000112A8BD4680BD80B586B000AF03463960FB71FB793B734FF001037B6107F10C0207F11003386811467A6943
S32D000112D0FFF728FD3A697B699A4202D14FF0010301E04FF0FF33184607F11807BD4680BD80B584B000AF786064
S32D000112F839604FF00003FB6019E07B681B7818463968FFF7CFFF0346B3F1FF3F14BF00230123DBB2002B02D090
S32D000113204FF0FF3311E07B6803F101037B60FB6803F10103FB607B681B78002B0CBF00230123DBB2002BDCD1B8
S32D00011348FB68184607F11007BD4680BD80B485B000AF786039604FF00103FB604FF00003BB604FF00003BB6085
S32D0001137008E0FB687A6802FB03F3FB60BB6803F10103BB60BA683B689A42ACBF00230123DBB2002BEDD1FB6871
S32D00011398184607F11407BD4680BC704790B599B000AFF860B9607A604FF000033B643B6CFB638FE3BB681B7829
S32D000113C087F84730BB6803F10103BB6097F84730002B00F08E8397F84730252B10D097F847301846F968FFF7AF
S32D000113E861FF0346FB63FB6BB3F1FF3F00F069834FF00103FB6364E34FF0000387F85F304FF000033B65BB686E
S32D000114101B7887F84730BB6803F10103BB6097F84730302B0CD14FF0010387F85F30BB681B7887F84730BB6890
S32D0001143803F10103BB600FE097F847302D2B0BD14FF0020387F85F30BB681B7887F84730BB6803F10103BB6015
S32D0001146097F847302E2B1ED1BB681B7887F84730BB6803F10103BB6015E03A6D13464FEA83039B184FEA430347
S32D000114881A4697F84730D318A3F130033B65BB681B7887F84730BB6803F10103BB6097F847302F2B06D997F8CD
S32D000114B04730392B02D84FF0010301E04FF00003002BDAD197F847306C2B03D097F847304C2B0DD197F85F3033
S32D000114D843F0040387F85F30BB681B7887F84730BB6803F10103BB6097F84730002B00F0FE8297F8473087F895
S32D00011500463097F84630602B09D997F846307A2B05D897F84630A3F1200387F8463097F84630A3F14203162B7D
S32D0001152800F2D38101A151F823F000BFAB18010091180100BF180100D31801006B160100D3180100D318010005
S32D00011550D3180100D3180100D3180100D3180100D3180100D3180100B5180100D3180100D3180100D318010052
S32D0001157891150100D3180100BF180100D3180100D3180100C91801007B6803F104027A601B687B624FF00003C6
S32D000115A07B6503E07B6D03F101037B657A6A7B6DD3181B78002B0CBF00230123DBB2002BF0D14FF000033B64B8
S32D000115C80AE04FF02000F968FFF76CFE0346FB633A6CFB6BD3183B6497F85F3003F00203002B0FD17A6D3B6DFD
S32D000115F09A422CBF00230123DBB27A6D02F101027A65002B02D04FF0010301E04FF00003002BDAD1786AF968F9
S32D00011618FFF76AFE0346FB633A6CFB6BD3183B640AE04FF02000F968FFF73CFE0346FB633A6CFB6BD3183B64F1
S32D000116407A6D3B6D9A422CBF00230123DBB27A6D02F101027A65002BE7D1FB6BB3F1FF3F00F035823B6CFB63BE
S32D0001166831E27B6803F1070323F0070303F108027A60D3E90023C7E90C23D7E90C23C7E90A234FF00003FB643F
S32D000116904FF001031C46D7E90C014FF000024FF00003FBF7DFFA0346002B02D14FF000031C46E3B2002B29D0C7
S32D000116B84FF02D00F968FFF7F5FD0346FB633A6CFB6BD3183B643B6B3B637B6B83F000437B63BB6ABB62FB6AAC
S32D000116E083F00043FB6211E0D7E90A014FF000024FF0804303F51013FBF76CF902460B46C7E90A23FB6C03F186
S32D000117080103FB64D7E90A01FBF7D0FA0346002B0CBF00230123DBB2002BE1D1FB6C03F1FF337B653FE07B6D64
S32D000117304FF00A001946FFF70DFE03461846FAF7B9FF02460B46D7E90C01FBF743F902460B4610461946FBF7BD
S32D00011758ADFA03463B623A6A46F26763C6F2666383FB02134FEAA3014FEAE273C91A0B464FEA83035B184FEA11
S32D000117804303D31A3B623B6A03F130033B623B6ADBB21846F968FFF789FD0346FB633A6CFB6BD3183B647B6D6F
S32D000117A803F1FF337B657B6DB3F1FF3F0CBF00230123DBB2002BB6D14FF02E00F968FFF771FD0346FB633A6C72
S32D000117D0FB6BD3183B643B6D002B02D14FF003033B654FF00103BB6541E0BB6D4FF00A001946FFF7AFFD034630
S32D000117F81846FAF75BFF02460B4610461946D7E90C23FAF7B9FF02460B4610461946FBF74DFA03463B623A6A22
S32D0001182046F26763C6F2666383FB02134FEAA3014FEAE273C91A0B464FEA83035B184FEA4303D31A3B623B6A04
S32D0001184803F130033B623B6ADBB21846F968FFF729FD0346FB633A6CFB6BD3183B64BB6D03F10103BB65BA6DFC
S32D000118703B6D9A428CBF00230123DBB2002BB4D1FB6BB3F1FF3F00F024813B6CFB6320E17B6803F104027A605C
S32D000118981B68DBB21846F968FFF704FD0346FB6314E14FF0020387F85E3017E04FF0080387F85E3012E04FF0EF
S32D000118C00A0387F85E300DE04FF0100387F85E3008E097F847301846F968FFF7E7FC0346FB63F7E097F85F3071
S32D000118E803F00403002B05D07B6803F104027A601B680EE097F84630442B05D17B6803F104027A601B6804E047
S32D000119107B6803F104027A601B68BB6497F84630442B0CD1BB6C002B09DABB6CC3F10003BB6497F85F3043F07B
S32D00011938080387F85F304FF00003BB6597F85E20BB6CB3FBF2F102FB01F29B1A87F8463097F85E30BA6CB2FBB6
S32D00011960F3F3BB6497F84630092B0DD997F84730782B02D14FF0270301E04FF0070397F846209B1887F8463088
S32D0001198897F8463003F13003DAB207F11001BB6DCB181A70BB6D03F10103BB65BB6C002B05D0BB6D0F2B02D837
S32D000119B04FF0010301E04FF00003002BC2D197F85F3003F00803002B0AD007F11002BB6DD3184FF02D021A70AE
S32D000119D8BB6D03F10103BB65BB6D7B6597F85F3003F00103DBB2002B02D04FF0300301E04FF0200387F846304F
S32D00011A004FF000033B640BE097F846301846F968FFF74CFC0346FB633A6CFB6BD3183B6497F85F3003F0020396
S32D00011A28002B0FD17A6D3B6D9A422CBF00230123DBB27A6D02F101027A65002B02D04FF0010301E04FF000033B
S32D00011A50002BD9D1BB6D03F1FF33BB6507F11002BB6DD3181B781846F968FFF71FFC0346FB633A6CFB6BD31806
S32D00011A783B64BB6D002B0CBF00230123DBB2002BE4D10AE04FF02000F968FFF70BFC0346FB633A6CFB6BD31889
S32D00011AA03B647A6D3B6D9A422CBF00230123DBB27A6D02F101027A65002BE7D1FB6BB3F1FF3F07D03B6CFB638B
S32D00011AC804E000BF02E000BF00E000BF3A6CFB6BD3183B64FB6BB3F1FF3F0CBF00230123DBB2002B7FF466ACDF
S32D00011AF002E000BF00E000BFFB6BB3F1FF3F01D1FB6B00E03B6C184607F16407BD4690BD80B588B000AF78607B
S32D00011B1839604FF080033B614FF00F03FB604FF0FF337B614FF00203FB612AE04FF00103BB611AE0FB69BA6924
S32D00011B4002FB03F33A6802FB03F27B68D31ABB60BB68002B09DBBA687B699A4205D2BB687B61FB693B61BB69F6
S32D00011B68FB60BB6903F10103BB61BB69102B8CBF00230123DBB2002BDCD1FB694FEA4303FB61FB69B3F5807F1B
S32D00011B908CBF00230123DBB2002BCBD14FF48053C4F20B034FF48052C4F20B02D26A22F00802DA624FF48053E4
S32D00011BB8C4F20B03DB6A1A464FF00F03CFF6F0731340BB614FF48053C4F20B033A694FEA52024FEA02224FEA0D
S32D00011BE002424FEA1242F96801F1FF314FEA0111C9B21143BA690A4342F46022DA6203E04FF00A0001F012FED7
S32D00011C084FF48053C4F20B035B6A03F00803002B14BF00230123DBB2002BEDD14FF48053C4F20B034FF4805266
S32D00011C30C4F20B02D26A42F00802DA624FF48053C4F20B034FF48052C4F20B02126B42F480121A6307F120077B
S32D00011C58BD4680BD80B582B000AF786039607B684FF000021A604FF48053C4F20B034FF40042C0F20012DA6299
S32D00011C804FF48053C4F20B03DB6A03F08073002B0CBF00230123DBB2002BF1D14FF48053C4F20B034FF000025E
S32D00011CA8C3F8C0204FF48053C4F20B034FF481325A604FF48053C4F20B034FF028029A624FF48053C4F20B03CF
S32D00011CD04FF001125A643B689B6818464CF66041C0F20501FFF714FF4FF48053C4F20B035B6A03F00303002B6A
S32D00011CF80CBF00230123DBB2002BF1D14FF45043C4F2040340F243421A604FF45043C4F2040340F243425A6069
S32D00011D204FF45043C4F204034FF488629A604FF45043C4F2040340F24342DA604FF45043C4F2040340F243420C
S32D00011D481A614FF45043C4F2040340F243425A614FF4E043C4F204034FF4E042C4F2040202F5805202F13002BA
S32D00011D70126842F4003203F5805303F130031A604FF48053C4F20B034FF6FF721A634FF48053C4F20B034FF0D0
S32D00011D98B302C0F27F025A634FF48053C4F20B034FF48052C4F20B02D26A42F00062DA624FF48053C4F20B03DF
S32D00011DC0DB6A03F00063002B0CBF00230123DBB2002BF1D14FF48053C4F20B035B6A03F48033002B0CBF002340
S32D00011DE80123DBB2002B03D07B684FF001021A604FF48053C4F20B034FF48052C4F20B02126B42F080021A631E
S32D00011E104FF00003184607F10807BD4680BD00BF80B400AF4FF48053C4F20B035B6A1A4640F207331340002B31
S32D00011E380CBF00230123DBB21846BD4680BC704780B485B000AF78604FF48053C4F20B031B6B1A467B681340A2
S32D00011E60FB60FB68002B14BF00230123DBB2002BEED1FB68184607F11407BD4680BC704780B584B000AF78601F
S32D00011E887B681B7803F03F0249F66413C0F2010353F82230FB60FB68002B06D17B681B78002B02D04FF0010302
S32D00011EB030E14FF48053C4F20B034FF48052C4F20B02126B42F080021A634FF48053C4F20B035B6A03F00103FC
S32D00011ED8DBB2002BF5D14FF48053C4F20B037A6852689A60FB6823F44003FB607B685B784FEA835303F44003D6
S32D00011F00FA681343FB607B685B78022B03D1FB6843F40013FB607B685B78042B16D1FB6803F44033B3F5003F60
S32D00011F2808D1FB6823F44033FB60FB6843F44033FB6007E0FB6823F44033FB60FB6843F40033FB604FF4805394
S32D00011F50C4F20B034FF48052C4F20B0252684FEA02424FEA12425A607B68DB68002B32D0FB6803F44033B3F580
S32D00011F78403F03D0FB6843F40013FB607B681B7A002B03D0FB6843F01003FB607B68DB68012B03D9FB6843F0A2
S32D00011FA02003FB607B68DB68B3F1FF3F13D04FF48053C4F20B034FF48052C4F20B02526811467A68D2684FEA91
S32D00011FC802420A435A60FB6843F00203FB604FF48053C4F20B034FF000021A604FF48053C4F20B03FA68DA609E
S32D00011FF04FF00100C0F20E00FFF726FF0346012B0CBF00230123DBB2002B10D04FF48053C4F20B034FF4805299
S32D00012018C4F20B02126B42F4702242F001021A634FF0010372E04FF48053C4F20B031B6B03F08003002B0CBF7E
S32D0001204000230123DBB2002B0ED04FF48053C4F20B034FF48052C4F20B02126B42F001121A634FF0010355E02B
S32D000120684FF48053C4F20B031B6B03F48033002B0CBF00230123DBB2002B0ED04FF48053C4F20B034FF480527D
S32D00012090C4F20B02126B42F001121A634FF0FF3338E0FB6803F44033002B25D04FF48053C4F20B031B691A46EB
S32D000120B87B681A61FB6803F44033B3F5803F17D14FF48053C4F20B035B691A467B685A614FF48053C4F20B0309
S32D000120E09B691A467B689A614FF48053C4F20B03DB691A467B68DA614FF48053C4F20B034FF48052C4F20B0241
S32D00012108126B42F001021A634FF00003184607F11007BD4680BD00BF80B592B000AF786039604FF00003FB6394
S32D000121303B68BB6341F29413C1F6FF737B637B6B002B03D140F6012300F0A0BC41F29833C1F6FF733B633B6BE8
S32D00012158002B03D140F60B2300F094BC3B6B1B68FB62FB6A002B03D140F60B2300F08ABC7B6841F20432934210
S32D0001218000F0388241F2043293421BD841F20132934238D041F20132934207D8032B00F03D84092B00F0298448
S32D000121A800F066BC41F20232934200F0128241F20332934200F0BE8300F05ABC41F20732934200F04B8341F290
S32D000121D0073293420BD841F20532934200F0348241F20632934200F0108300F045BC41F20832934200F0B682EC
S32D000121F841F20932934200F0C48200F039BC786B49F65811C0F20101FFF724FD0346FB63FB6B002B40F03084E8
S32D000122204FF0000387F847304FF0000387F82B304FF0000387F82A304FF0000387F829304FF0000387F84630CF
S32D000122484FF0000387F828304FF000033B724FF000037B724FF00003FB604FF000033B744FF000037B6107F18C
S32D0001227008031846FFF704FE0346002B0CBF00230123DBB2002B03D04FF00103FB63FCE340F24C4001F0CAFADA
S32D000122984FF008033B724FF000037B724FF4D573FB604FF000033B744FF000037B6107F108031846FFF7E0FDC8
S32D000122C003463B643B6C002B0BD1BA69FB689A4203D04FF00103FB63D7E34FF0010387F846304FF0010387F8CF
S32D000122E8283097F82830002B00F0C6804FF037033B724FF000037B724FF00003FB604FF000033B744FF0000302
S32D000123107B6107F108031846FFF7B2FD03463B643B6C002B03D04FF00103FB63ADE34FF069033B724FF0000364
S32D000123387B724FF00003FB604FF000033B744FF000037B6107F108031846FFF795FD0346002B0CBF002301236E
S32D00012360DBB2002B03D04FF00103FB638DE3BB6903F44013002B00F083804FF000033B644FF00A0001F052FABF
S32D000123883B6C03F101033B644FF037033B724FF000037B724FF00003FB604FF000033B744FF000037B6107F1EF
S32D000123B008031846FFF764FD0346002B0CBF00230123DBB2002B03D04FF00103FB6336E04FF069033B724FF0DF
S32D000123D800037B7297F84630002B05D04FF00003C4F23003FB6002E04FF44013FB604FF000033B744FF0000355
S32D000124007B6107F108031846FFF73AFD0346002B0CBF00230123DBB2002B03D04FF00103FB630CE0BB69002B56
S32D0001242805DB3B6C632B02D84FF0010301E04FF00003002BA0D1FB6B002B40F01F833B6C632B04D94FF00003DD
S32D0001245087F8463014E04FF0010387F8473097F84630002B0CD04FF0000387F84630BB6903F08043002B03D020
S32D000124784FF0010387F8463097F82A30002B03D07B6B4FF007021A6097F82930002B03D07B6B4FF008021A60DF
S32D000124A097F82B30002B03D07B6B4FF004021A6097F84730002B0BD07B6B4FF002021A6097F84630002B03D0CE
S32D000124C87B6B4FF003021A6097F82B30002B0FD097F84730002B0BD07B6B4FF005021A6097F84630002B03D098
S32D000124F07B6B4FF006021A604FF45043C4F204034FF000021A604FF45043C4F204034FF000025A604FF4504364
S32D00012518C4F204034FF000029A604FF45043C4F204034FF00002DA604FF45043C4F204034FF000021A614FF4FC
S32D000125405043C4F204034FF000025A61FB6A9A68FB6A5B6810461946FFF7DAFA4FF45043C4F2040340F24342C8
S32D000125681A604FF45043C4F2040340F243425A604FF45043C4F204034FF488629A604FF45043C4F2040340F247
S32D000125904342DA604FF45043C4F2040340F243421A614FF45043C4F2040340F243425A614FF4E043C4F2040370
S32D000125B84FF4E042C4F2040202F5805202F13002126842F4003203F5805303F130031A6057E2B86BFFF750FCF9
S32D000125E003463B643B6C002B00F04E824FF00203FB6349E2BB6B002B03D14FF00C03FB6343E24FF48053C4F2C3
S32D000126080B03DB6A03F47F434FEA13234FEA43033B644FF48053C4F20B03DB6A03F0F0034FEA131303F10102AF
S32D000126303B6C02FB03F33B64FB6A9A683B6CB2FBF3F2BB6B1A6020E2BB6B002B03D14FF00C03FB6319E2BB6B0E
S32D000126581B68002B03D14FF00C03FB6311E2FFF7DBFB0346002B14BF00230123DBB2002B70D04FF45043C4F254
S32D0001268004034FF000021A604FF45043C4F204034FF000025A604FF45043C4F204034FF000029A604FF4504337
S32D000126A8C4F204034FF00002DA604FF45043C4F204034FF000021A614FF45043C4F204034FF000025A61FB6A88
S32D000126D09A68BB6B1B6810461946FFF719FA4FF45043C4F2040340F243421A604FF45043C4F2040340F2434264
S32D000126F85A604FF45043C4F204034FF488629A604FF45043C4F2040340F24342DA604FF45043C4F2040340F2F6
S32D0001272043421A614FF45043C4F2040340F243425A614FF4E043C4F204034FF4E042C4F2040202F5805202F185
S32D000127483002126842F4003203F5805303F130031A6096E140F60A23FB6392E1BB6B002B03D14FF00C03FB6366
S32D000127708BE14FF48053C4F20B035B684FEAC3434FEAD343BA6B13607FE1BB6B002B03D14FF00C03FB6378E181
S32D00012798FFF742FB0346002B14BF00230123DBB2002B2AD0BB6B1A6840F6FF739A4203D94FF00C03FB6364E1A6
S32D000127C04FF48053C4F20B034FF48052C4F20B02526822F4FE5222F03F025A604FF48053C4F20B034FF480521C
S32D000127E8C4F20B0252681146BA6B12684FEAC2424FEAD2420A435A6043E140F60A23FB633FE1BB6B002B03D194
S32D000128104FF00C03FB6338E14FF48053C4F20B039B6A03F006034FEA53033B643B6C002B04D1BB6B4FF00002BD
S32D000128381A6026E13B6C012B04D1BB6B4FF001021A601EE13B6C102B04D1BB6B4FF002021A6016E14FF005038F
S32D00012860FB6312E1BB6B002B03D14FF00C03FB630BE1FFF7D5FA0346002B14BF00230123DBB2002B56D0BB6BE4
S32D000128881B68002B16D14FF48053C4F20B034FF48052C4F20B02926A22F006029A624FF48053C4F20B034FF4AB
S32D000128B08052C4F20B02926A9A62E6E0BB6B1B68012B18D14FF48053C4F20B034FF48052C4F20B02926A22F028
S32D000128D806029A624FF48053C4F20B034FF48052C4F20B02926A42F002029A62C9E0BB6B1B68022B16D14FF444
S32D000129008053C4F20B034FF48052C4F20B02926A22F006029A624FF48053C4F20B034FF48052C4F20B02926A79
S32D000129289A62AEE04FF00503FB63AAE040F60A23FB63A6E0BB6B002B03D14FF00C03FB639FE04FF48053C4F264
S32D000129500B034FF48052C4F20B02D26A42F00062DA624FF48053C4F20B03DB6A03F00063002B0CBF00230123B4
S32D00012978DBB2002BF1D14FF48053C4F20B031B6B03F08003002B0CBF00230123DBB2002B0FD04FF48053C4F240
S32D000129A00B034FF48052C4F20B02126B42F080021A637B6B4FF000021A604FF48053C4F20B035B6A03F480338A
S32D000129C8002B0CBF00230123DBB2002B08D07B6B1B68002B08D17B6B4FF001021A6003E07B6B4FF000021A6080
S32D000129F07B6B1A68BB6B1A6047E0BB6B4FF01C021A60BB6B03F104034FF004021A60BB6B03F108034FF41E72B4
S32D00012A181A6036E04FF00200FFF712FA4FF48053C4F20B031B6B03F4E003002B0CBF00230123DBB2002B0ED0AF
S32D00012A404FF48053C4F20B034FF48052C4F20B02126B42F4E0021A634FF00403FB634FF48053C4F20B034FF4E2
S32D00012A688052C4F20B02126B42F032021A6308E040F60923FB6304E000BF02E000BF00E000BFFB6B184607F103
S32D00012A904807BD4680BD00BF80B590B000AF0346FB7141F29833C1F6FF73FB6341F27C13C1F6FF73BB63BA6B3D
S32D00012AB841F29013C1F6FF731360FB79002B02D04FF0010302E240F20043C1F6FF731B78DBB203F00203002B04
S32D00012AE00CBF00230123DBB2002B06D040F20043C1F6FF731B78DBB2ECE140F20043C1F6FF731B78DBB203F0EB
S32D00012B080303002B14BF00230123DBB2002B02D04FF00003DAE1BB6B002B03D0BB6B1B68002B02D14FF00003BF
S32D00012B30D0E1FA6B49F65813C0F201031360FB6B4FF001025A60BB6B4FF000025A60BB6B4FF000029A60BB6B83
